:100000000C9434000C94A0000C9451000C945100FA
:100010000C9451000C9451000C9451000C9451001C
:100020000C9451000C9451000C9451000C947900E4
:100030000C9451000C9451000C9451000C945100FC
:100040000C9451000C9451000C9451000C945100EC
:100050000C9451000C9451000C9451000C945100DC
:100060000C9451000C94510011241FBECFEFD8E026
:10007000DEBFCDBF11E0A0E0B1E0EEEEF1E002C0E6
:1000800005900D92AA30B107D9F721E0AAE0B1E0BE
:1000900001C01D92AB30B207E1F70E94B0000C9492
:1000A000F5000C94000084B18F6384B952985A9A79
:1000B000E9E6F0E0808182608083E89A80E48093C2
:1000C0007C0087E880937A00E1E8F0E08081886036
:1000D0008083808183608083EFE6F0E080818260AE
:1000E000808380E29EE490938900809388007894D6
:1000F00008951F920F920FB60F9211248F93EF93D2
:10010000FF9380910001882399F0E0910A01F0E0CB
:10011000EF5FFE4F8081806185B980910A018F5F1A
:1001200080930A0180910A01883010F010920A0130
:10013000FF91EF918F910F900FBE0F901F90189528
:100140001F920F920FB60F9211248F9310920001FD
:1001500080E285B98F910F900FBE0F901F90189578
:100160000E94530027E340E65AEE60E070E0809181
:1001700000018823E1F380917A00806480937A0003
:1001800080917A0086FDFCCFE0917800F0917900B3
:100190002E9FC0012F9F900D11247A018B01E81A28
:1001A000F90A01091109D801C701803D07E090074C
:1001B000A105B10558F081361AEE9107A105B105E8
:1001C00048F080E69AEEA0E0B0E004C080ED97E051
:1001D000A0E0B0E090938900809388008FE39CE9D1
:0E01E0000197F1F700C00000C2CFF894FFCFE6
:0A01EE0001080C04060203010900D9
:00000001FF
